S01A000045464D333248473232324636345F626C696E6B2E73333759
S11300000020002069080000950800009508000001
S11300109508000095080000950800009508000068
S11300209508000095080000950800009508000058
S11300309508000095080000950800006D01000077
S11300409508000095080000950800009508000038
S11300509508000095080000950800009508000028
S11300609508000095080000950800009508000018
S11300709508000095080000950800009508000008
S113008095080000950800009508000095080000F8
S11300909508000010B5064C2378002B07D1054BBA
S11300A0002B02D0044800E000BF0123237010BDE0
S11300B078000020000000006C0D000008B5084B1B
S11300C0002B03D00748084900E000BF0748036835
S11300D0002B00D108BD064B002BFBD09847F9E755
S11300E0000000006C0D00007C0000207400002063
S11300F000000000164B002B00D1144B9D464022FB
S113010092029A1A924600218B460F461348144ACB
S1130110121A00F015FD0F4B002B00D098470E4B20
S1130120002B00D098470020002104000D000D484A
S1130130002802D00C4800E000BF00F0DBFC2000E7
S1130140290000F01BF800F0BFFCC04600000800C6
S113015000200020000000000000000078000020C3
S1130160980000200000000000000000024A13680C
S1130170013313607047C04694000020012238B553
S1130180244B1A64244BDB6C1B0E812B07D8234AA7
S1130190234B1A60234A244B11680B4013602348F5
S11301A000F0CCF9FA21890000F0FCFB204B013867
S11301B0984200D9FEE71F4A1F495060C0200B6ACD
S11301C000061B021B0A03430B6200238024936076
S11301D0073313601948012100F086F818480121FB
S11301E000F082F80B2104220120002300F01CFA05
S11301F0144D154A154924016C63106813681B1AC1
S11302008B42FBD9AC63106813681B1A8B42FBD971
S1130210F2E7C04600000C40B081E00F0500000486
S113022018600C40E4800C40FFFFFFFE70000200E9
S1130230FFFFFF0010E000E000ED00E0408104005B
S1130240008204000060004094000020CF070000FA
S1130250FEE7C046E021802208B5194BC9005B695E
S113026092000B40934220D007D8002B1BD0013AB8
S1130270FF3A934209D1134808BDC0229200934229
S11302800AD08B4201D11048F6E7A6210F48090194
S1130290FFF7DEFF0020EFE70D4BDB6C1B0E122B8C
S11302A00AD80C48E8E70C48E6E7094BDB6C1B0E60
S11302B0122B03D80948DFE70948DDE70948DBE7E3
S11302C000800C40C0D8A700406F4001B40B000070
S11302D0B081E00F40420F00809FD500C0CF6A007C
S11302E0804F120040B5640038B503051B0F0A2B7C
S11302F02CD8194A9B00D3589F468025174C6D0073
S1130300174AC003536DC00EDB0708D50122814094
S11303108240081C236893431843206038BD136D42
S11303202B42F3D0136D2B42F9D1EFE70D4CC003F0
S1130330C00EEBE70C4CFAE70C4CF8E701250C4C2B
S1130340DEE710250B4CDBE70B4CF0E70B480C49C0
S1130350FFF77EFFE2E7C0466C0B000064800C40B0
S113036000800C4044800C4078800C4008800C4095
S113037058800C4060800C4040800C40B40B00005E
S11303800B11000008B50F231840062843D82B4B47
S113039080001B589F46072008BD294BDA6A294B69
S11303A013408022520193423BD040D98022022044
S11303B092019342F0D080220930D2049342EBD0D0
S11303C00520E9E703211E4A936A0B40022B2CD037
S11303D0032B28D0012B24D0936ADB030ED50C20E9
S11303E0DAE70C21164A936A0B40082B1DD00C2B1C
S11303F019D0042B15D0936ADB02F0D40120CBE78B
S113040030200F4B9B6A184010280AD020384342F2
S113041058410130C0E70C480C49FFF719FF002090
S1130420BAE70320B8E70620B6E70220B4E7802243
S1130430042012019342AFD0C2E7C046980B0000DB
S113044000800C40003C0004B40B00000A160000BD
S1130450F8B5324B041E9C4209D0314B984206D069
S1130460304B984203D030483049FFF7F1FE201C4E
S1130470FFF788FF294D061CAC4223D0284B9C4231
S11304802DD0284B9C4210D0274F2949381CFFF708
S1130490DFFE012E2DD0002E1DD0022E18D0032EEB
S11304A036D100F059FA400814E00321214A936A36
S11304B00B40022B0CD0032BF3D0012B19D0936AE1
S11304C0102220E01B4B9B6A1B079B0F022B13D1AE
S11304D000F062FAF8BDAC4212D00020FAE7154BE6
S11304E09B6A9B069B0F022BF2D0032BD9D0012BC6
S11304F0F3D100F049FAEDE7032BD2D0012BF8D069
S113050014220C4B9B6AD340E7D000F041FAE1E798
S1130510381C0949FFF79CFE0020DBE703001E009E
S11305200400200002001C00B40B0000A30C000017
S1130530D20C000000800C40FD0C000008B5F8232C
S11305409B03184080235B03984234D010D9C02306
S11305505B03984247D031D9E0235B03984226D00D
S1130560F0235B03984238D12848FFF771FF08BD98
S113057080239B0298423FD02DD98023DB029842EE
S11305800DD0E0231B03984227D12148FFF7FAFE40
S1130590072810D0092832D100F07EF9E7E700F0EF
S11305A07BF90F221B4B9B681340D840DFE71A48A6
S11305B0FFF74EFFDBE7FFF74DFED8E790235B0321
S11305C098420AD11448FFF743FF0F22114B9B6E48
S11305D01340D840CBE70028DED010481049FFF77D
S11305E037FE0020C3E70948FFF732FF0322094B17
S11305F01B6F1340D840BAE700F0AEF9B7E70748DD
S11306000849FFF725FE0020B1E7C04603001E009D
S113061006000E0000800C4002001C00B40B000019
S1130620181200009A0A0000F0B54746041C80B472
S11306300D1C171C9846002842D0012800D1A5E0C3
S1130640022800D1D1E0032800D1CCE0042800D155
S1130650CDE03F23052834D08A217A484900FFF7AA
S1130660F7FDE600002F32D1072D59D80F20764A26
S113067033199446AA0090409B006344596881430F
S1130680381C9040021C0A435A60002F45D143464F
S1130690002B69D1002C33D0012C00D1AAE0022C0C
S11306A000D1B0E0032C00D1B8E0042C00D1BDE0AF
S11306B03F23052C25D065486549FFF7C9FD23E094
S11306C0644B2B41DB07C7D5E600002FCCD0434653
S11306D0002B37D0002C6AD0012C00D195E0022CDD
S11306E000D19FE0032C00D187E0042C00D1A0E0CE
S11306F03F23052C5CD055485749FFF7A9FD5AE024
S1130700544B2B41DB07D6D50123AB401D1C534B67
S113071034199C46A4006444656004BC9046F0BD52
S11307200F20494B32199C464D4B9200EB189B000D
S11307309840624491688143381C9840031C0B43E1
S11307409360A2E7002C24D0012C61D0022C67D046
S1130750032C54D0042C6FD03F23052C1AD03B48D3
S11307603B49FFF775FD18E0002C2ED0012C52D028
S1130770022C59D0032C44D0042C60D03F23052CE8
S113078024D032483449FFF763FD22E0D323DB0150
S113079097E7304B2B41DB07E1D501222F49AA40D3
S11307A08C46E60033199B0063445A605CE7294B8E
S11307B02B41DB079FD501222349AA408C46E60042
S11307C033199B0063441A614EE7224B2B41DB072C
S11307D0D7D50123AB401D1C1B4B34199C46A400E8
S11307E06444256199E7F0236BE71E4B69E7F02326
S11307F09B0166E7D323DB0183E7F023D8E7F023EB
S1130800C8E7F023E2E7174B7BE7D323DB01CFE70D
S1130810D323DB01BEE7D323DB01D7E7F02370E763
S1130820104BB7E70F4BC3E70E4BCFE7F0239B0109
S113083067E7F0239B01BBE7F0239B01AAE7F023C2
S11308409B01C3E78C0C000000600040F80C000022
S1130850C203000007070000F1030000106000401D
S1130860F8FFFF3F1FEF0000064880470649074A8C
S1130870074B9B1A03DD043BC858D050FBDCFFF741
S113088039FC000079090000780D00000000002008
S113089078000020FEE7C04608B5254BDA6A254BF0
S11308A013408022520193422DD013D98022920109
S11308B093420CD08022D204934212D11E481C4B86
S11308C01968C903490F013100F06CF808BD1B4BCE
S11308D01868F4E780221201934202D1184B186879
S11308E0EDE7134BDA68E023DB001340802292002B
S11308F0934215D00AD8002B16D0013AFF3A9342FE
S113090010D11048DBE780200002D8E7C022920013
S113091093420BD00132FF32934203D10A48CEE70F
S11309200A48CCE70020CAE70948C8E70948C6E7EF
S113093000800C40003C000400366E0100000020E2
S11309400400002040B56400406F4001C0D8A700F7
S1130950804F1200809FD50008B5FFF79DFF0F223E
S1130960034B5B681340D840024B186008BDC04677
S113097000800C4008000020014B024A9A60704736
S113098000ED00E000000000802000027047C04637
S1130990FA2080007047C046014B18687047C04673
S11309A000000020002243088B4274D303098B42C9
S11309B05FD3030A8B4244D3030B8B4228D3030C2B
S11309C08B420DD3FF22090212BA030C8B4202D3CD
S11309D01212090265D0030B8B4219D300E0090AF5
S11309E0C30B8B4201D3CB03C01A5241830B8B42FE
S11309F001D38B03C01A5241430B8B4201D34B03E7
S1130A00C01A5241030B8B4201D30B03C01A52414B
S1130A10C30A8B4201D3CB02C01A5241830A8B42D0
S1130A2001D38B02C01A5241430A8B4201D34B02B9
S1130A30C01A5241030A8B4201D30B02C01A52411D
S1130A40CDD2C3098B4201D3CB01C01A52418309D1
S1130A508B4201D38B01C01A524143098B4201D30B
S1130A604B01C01A524103098B4201D30B01C01A36
S1130A705241C3088B4201D3CB00C01A52418308B0
S1130A808B4201D38B00C01A524143088B4201D3DD
S1130A904B00C01A5241411A00D20146524110463D
S1130AA07047FFE701B5002000F00CF802BDC04616
S1130AB00029F7D003B5FFF775FF0EBC4243891A2E
S1130AC01847C0467047C046084B10B5041C002B9D
S1130AD002D0002100E000BF054B1868836A002B98
S1130AE000D09847201C00F033F8C04600000000F6
S1130AF0680D00000E4B70B500251E1C0D4CE41A49
S1130B00A410A54204D0AB00F35898470135F8E788
S1130B1000F020F8084B00251E1C084CE41AA41011
S1130B20A54204D0AB00F35898470135F8E770BDEF
S1130B306C0000206C0000206C000020700000207D
S1130B40031C8218934202D019700133FAE77047EC
S1130B50FEE7C046F8B5C046F8BC08BC9E467047E0
S1130B60F8B5C046F8BC08BC9E4670474C0300006C
S1130B70380300002C030000480300004C0300006D
S1130B804C0300003C03000042030000FA02000092
S1130B904C03000034030000160400009A03000014
S1130BA0C4030000E2030000000400001604000077
S1130BB0960300002F686F6D652F62726563687419
S1130BC02F50726F6772616D732F53696D706C690A
S1130BD06369747953747564696F5F76342F6465DF
S1130BE076656C6F7065722F73646B732F676563C2
S1130BF06B6F5F73646B5F73756974652F76322EE8
S1130C00342F706C6174666F726D2F656D6C6962E0
S1130C102F7372632F656D5F636D752E6300000023
S1130C202F686F6D652F6272656368742F50726FE1
S1130C306772616D732F53696D706C696369747940
S1130C4053747564696F5F76342F646576656C6F71
S1130C507065722F73646B732F6765636B6F5F735B
S1130C60646B5F73756974652F76322E342F2F7021
S1130C706C6174666F726D2F656D6C69622F696E3D
S1130C80632F656D5F636D752E6800002F686F6D4F
S1130C90652F6272656368742F50726F6772616D3D
S1130CA0732F53696D706C696369747953747564D7
S1130CB0696F5F76342F646576656C6F7065722F2B
S1130CC073646B732F6765636B6F5F73646B5F73C0
S1130CD0756974652F76322E342F706C6174666F6B
S1130CE0726D2F656D6C69622F7372632F656D5F12
S1130CF06770696F2E6300002F686F6D652F6272D5
S1130D00656368742F50726F6772616D732F5369D6
S1130D106D706C696369747953747564696F5F7617
S1130D20342F646576656C6F7065722F73646B73B2
S1130D302F6765636B6F5F73646B5F73756974654D
S1130D402F76322E342F2F706C6174666F726D2F74
S1130D50656D6C69622F696E632F656D5F6770697D
S1130D606F2E6800430000000C000020000000000B
S10B0D7084F3FF7F0100000081
S1130D780080000000366E01809FD500000000004E
S1130D880000000000000000000000000000000057
S1130D98000000000000000000000000640D0000D6
S1130DA80000000000000000000000000000000037
S1130DB80000000000000000000000000000000027
S1130DC80000000000000000000000000000000017
S1130DD8000000000000000000000000BD0000004A
S10B0DE895000000000000006A
S90308698B
