:1000000000200020410C0000911E0000951E000001
:100010006D0C00006D0C00006D0C00006D0C0000FC
:100020006D0C00006D0C00006D0C0000991E0000AE
:100030006D0C00006D0C00009D1E00006D0C00009A
:100040006D0C0000851A0000213100006D0C0000CD
:10005000E51600006D0C0000CD1A00006D0C0000CC
:100060001D290000252900006D0C00006D0C00000A
:10007000B11800006D0C00006D0C00006D0C00004C
:100080006D0C000081280000DD2800006D0C0000D0
:100090006D0C000010B5064C2378002B07D1054BE2
:1000A000002B02D0044800E000BF0123237010BDE4
:1000B00080000020000000005463000008B5084BD9
:1000C000002B03D00748084900E000BF0748036839
:1000D000002B00D108BD064B002BFBD09847F9E759
:1000E0000000000054630000840000207C00002019
:1000F00000000000164B002B00D1144B9D464022FF
:1001000092029A1A924600218B460F461348144ACF
:10011000121A05F0EAF80F4B002B00D098470E4B4F
:10012000002B00D098470020002104000D000D484E
:10013000002802D00C4800E000BF05F0A7F820001E
:10014000290001F057FD05F08BF8C04600000800BB
:1001500000200020000000000000000080000020BF
:10016000280200200000000000000000FEE7C0465A
:1001700038B50F4C0F4BE56BE36300F079FD0E4B88
:1001800062680021984203D90C4B013198420AD889
:100190000720074A536883430B435360002D01D067
:1001A0000023D36338BD07231340191CF0E7C04672
:1001B00000000C40711B00000024F4000048E8011E
:1001C000E021802208B5194BC9005B6992000B4001
:1001D000934220D007D8002B1BD0013AFF3A93421C
:1001E00009D1134808BDC022920093420AD08B4225
:1001F00001D11048F6E7A6210F480901FFF7B6FF25
:100200000020EFE70D4BDB6C1B0E122B0AD80C48BD
:10021000E8E70C48E6E7094BDB6C1B0E122B03D812
:100220000948DFE70948DDE70948DBE700800C40C3
:10023000C0D8A700406F4001F0530000B081E00F2C
:1002400040420F00809FD500C0CF6A00804F12004F
:1002500040B564000E4B0F4A10B5DC6BDA635A6888
:100260000D4B0021984203D90C4B013198420AD81A
:100270000720074A536883430B435360002C01D087
:100280000023D36310BD07231340191CF0E7C046B9
:1002900000000C40711B00000024F4000048E8013D
:1002A00038B503051B0F0A2B2CD8194A9B00D358CD
:1002B0009F468025174C6D00174AC003536DC00E32
:1002C000DB0708D5012281408240081C2368934344
:1002D0001843206038BD136D2B42F3D0136D2B42B1
:1002E000F9D1EFE70D4CC003C00EEBE70C4CFAE779
:1002F0000C4CF8E701250C4CDEE710250B4CDBE736
:100300000B4CF0E70B480C49FFF730FFE2E7C04623
:100310002853000064800C4000800C4044800C4056
:1003200078800C4008800C4058800C4060800C4065
:1003300040800C40F05300000B11000008B50F2363
:100340001840062843D82B4B80001B589F46072097
:1003500008BD294BDA6A294B13408022520193428F
:100360003BD040D98022022092019342F0D08022DB
:100370000930D2049342EBD00520E9E703211E4A5D
:10038000936A0B40022B2CD0032B28D0012B24D0B6
:10039000936ADB030ED50C20DAE70C21164A936A28
:1003A0000B40082B1DD00C2B19D0042B15D0936AB1
:1003B000DB02F0D40120CBE730200F4B9B6A1840C2
:1003C00010280AD02038434258410130C0E70C4879
:1003D0000C49FFF7CBFE0020BAE70320B8E7062060
:1003E000B6E70220B4E78022042012019342AFD086
:1003F000C2E7C0465453000000800C40003C00049B
:10040000F05300000A160000F8B5324B041E9C425F
:1004100009D0314B984206D0304B984203D0304837
:100420003049FFF7A3FE201CFFF788FF294D061C6B
:10043000AC4223D0284B9C422DD0284B9C4210D05C
:10044000274F2949381CFFF791FE012E2DD0002E91
:100450001DD0022E18D0032E36D100F06DFC4008BE
:1004600014E00321214A936A0B40022B0CD0032B8A
:10047000F3D0012B19D0936A102220E01B4B9B6A0A
:100480001B079B0F022B13D100F076FCF8BDAC428A
:1004900012D00020FAE7154B9B6A9B069B0F022B9C
:1004A000F2D0032BD9D0012BF3D100F05DFCEDE7A6
:1004B000032BD2D0012BF8D014220C4B9B6AD340D3
:1004C000E7D000F055FCE1E7381C0949FFF74EFE84
:1004D0000020DBE703001E000400200002001C00D7
:1004E000F0530000A30C0000D20C000000800C4070
:1004F000FD0C000008B5F8239B03184080235B0324
:10050000984234D010D9C0235B03984247D031D9E8
:10051000E0235B03984226D0F0235B03984238D156
:100520002848FFF771FF08BD80239B0298423FD007
:100530002DD98023DB0298420DD0E0231B03984283
:1005400027D12148FFF7FAFE072810D0092832D119
:1005500000F092FBE7E700F08FFB0F221B4B9B683C
:100560001340D840DFE71A48FFF74EFFDBE7FFF7FD
:1005700027FED8E790235B0398420AD11448FFF77F
:1005800043FF0F22114B9B6E1340D840CBE700284E
:10059000DED010481049FFF7E9FD0020C3E7094805
:1005A000FFF732FF0322094B1B6F1340D840BAE715
:1005B00000F0C2FBB7E707480849FFF7D7FD002066
:1005C000B1E7C04603001E0006000E0000800C408C
:1005D00002001C00F0530000181200009A0A0000EC
:1005E00010B5052830D81B4B80001B589F46202390
:1005F00010200524002912D0174B1862002A06D0BB
:100600000123A3401A1C15490B681342FCD010BDEE
:10061000802380201B01C00016240029ECD10E4A43
:100620001362F4E7802380209B0040000924E1E767
:10063000802340200724DDE7082304200324D9E792
:10064000022301200124D5E705480649FFF78EFD66
:10065000DDE7C0467053000000800C402C800C4049
:10066000F0530000B61C000010B50F240440032C0A
:1006700011D8022C08D2012C1AD10C2900D981E002
:10068000474B89005B589F460C2900D975E0454BC4
:1006900089005B589F46042C0AD102290DD00329FA
:1006A0001AD0012916D040484049FFF75FFD03E00A
:1006B0003D483F49FFF75AFD10BD002001210122AE
:1006C000FFF78EFF202030213A4A936A8B43034381
:1006D0009362F1E70020F6E7012001210122FFF7F4
:1006E0007FFF1020EFE7002300213248022C4ED07C
:1006F000846A314A89001B050B43224013438362FD
:10070000DAE7012101200122FFF76AFF002301211E
:10071000EBE7012100200122FFF762FF0023022105
:10072000E3E701230021E0E70423244A11680B4397
:10073000136003210023D8E70220022401210122B3
:10074000FFF74EFFFFF714FD1A4B5C6200F0F4FA5E
:100750000021FFF77FFDAFE701200324EEE71248F9
:100760001749FFF703FDA7E700200424E6E703206D
:100770000124E3E705200524E0E70B481149FFF7D2
:10078000F5FC99E708481049FFF7F0FC94E7846A04
:100790000E4A1B04224011430B4383628CE7C04680
:1007A00088530000BC530000F05300009E17000067
:1007B000DC18000000800C40F3FFEFFF40800C408D
:1007C000C41600006D170000C9160000FCFFFEFFF4
:1007D000EFF3108072B67047002800D162B6704700
:1007E00008B5054B1120DA6A044B1A60FFF7A6FD25
:1007F000034B187008BDC04600800C409C000020D0
:10080000A000002070B5002837D084221C491D4864
:1008100001238D58885040211B4E743A30681D408A
:100820000240034001401A430A43042101400A43A5
:100830008021490001400A438021141C021C8903C5
:100840000A4001D08022D2000D4922430A620F4A99
:100850001178052905D01120FFF706FF0123326822
:100860001340002B02D10222054B1A62002D03D047
:1008700000218423024AD15070BDFFF7B1FFFBE78E
:1008800000800C400E5800009C000020A0000020BA
:1008900010B5002817D184231D4A1E4CD158D450BE
:1008A000C9072CD5D05004231B4A11690B4313618F
:1008B000FFF78EFF041C04F02FFD201CFFF78CFFB8
:1008C00000F03AFA10BDFFF78BFF8423104A11485D
:1008D000D158D050C90716D50021D15004230E4A53
:1008E00011690B431361FFF773FF041C04F014FD3F
:1008F000201CFFF771FF0120FFF784FFE2E7064AA3
:1009000004211369D2E7044A04211369E9E7C046C8
:1009100000800C400E58000000ED00E0F0B54746A6
:1009200080B4984606AB1F7807AB041C151C1E78D4
:1009300000281AD0012847D002284AD0032846D0E0
:10094000042848D03F23052810D02448C621FFF7AB
:100950000DFC072D10D80722A800824084402049B2
:100960000B6893431C430C6011E01E4B0B41191C98
:10097000CB07EAD5072DEED92B1C0721083B9B009E
:1009800099409C40184802688A431443046001203F
:10099000A8404146C243A940AF40144CAE40236832
:1009A00013400B43124923600B6813401F438E23EF
:1009B0000F6010495B00C8500F4B19680A40324362
:1009C0001A6004BC9046F0BDD323DB01CEE7F023D0
:1009D000CCE70A4BCAE7F0239B01C7E7C8540000E5
:1009E000006100400707000004610040086100400A
:1009F0000C61004000600040106100401FEF0000EB
:100A0000F0B54746041C80B40D1C171C98460028FE
:100A100042D0012800D1A5E0022800D1D1E003286E
:100A200000D1CCE0042800D1CDE03F23052834D00C
:100A30008A217A484900FFF799FBE600002F32D15E
:100A4000072D59D80F20764A33199446AA009040B2
:100A50009B00634459688143381C9040021C0A4340
:100A60005A60002F45D14346002B69D1002C33D06A
:100A7000012C00D1AAE0022C00D1B0E0032C00D15F
:100A8000B8E0042C00D1BDE03F23052C25D06548FB
:100A90006549FFF76BFB23E0644B2B41DB07C7D5B0
:100AA000E600002FCCD04346002B37D0002C6AD074
:100AB000012C00D195E0022C00D19FE0032C00D145
:100AC00087E0042C00D1A0E03F23052C5CD05548E2
:100AD0005749FFF74BFB5AE0544B2B41DB07D6D568
:100AE0000123AB401D1C534B34199C46A4006444A5
:100AF000656004BC9046F0BD0F20494B32199C46FE
:100B00004D4B9200EB189B009840624491688143E2
:100B1000381C9840031C0B439360A2E7002C24D0A0
:100B2000012C61D0022C67D0032C54D0042C6FD040
:100B30003F23052C1AD03B483B49FFF717FB18E031
:100B4000002C2ED0012C52D0022C59D0032C44D092
:100B5000042C60D03F23052C24D032483449FFF7C1
:100B600005FB22E0D323DB0197E7304B2B41DB076A
:100B7000E1D501222F49AA408C46E60033199B009B
:100B800063445A605CE7294B2B41DB079FD5012268
:100B90002349AA408C46E60033199B0063441A613E
:100BA0004EE7224B2B41DB07D7D50123AB401D1C61
:100BB0001B4B34199C46A4006444256199E7F0233B
:100BC0006BE71E4B69E7F0239B0166E7D323DB014C
:100BD00083E7F023D8E7F023C8E7F023E2E7174BD9
:100BE0007BE7D323DB01CFE7D323DB01BEE7D323AE
:100BF000DB01D7E7F02370E7104BB7E70F4BC3E7F4
:100C00000E4BCFE7F0239B0167E7F0239B01BBE787
:100C1000F0239B01AAE7F0239B01C3E7C85400001F
:100C20000060004034550000C203000007070000C8
:100C3000F103000010600040F8FFFF3F1FEF0000CD
:100C4000064880470649074A074B9B1A03DD043BC9
:100C5000C858D050FBDCFFF74DFA0000590D0000DA
:100C6000606300000000002080000020FEE7C04616
:100C70000048704700366E0108B5254BDA6A254BEF
:100C800013408022520193422DD013D98022920129
:100C900093420CD08022D204934212D11E481C4BA6
:100CA0001968C903490F013102F0CCFF08BD1B4B85
:100CB0001868F4E780221201934202D1184B186899
:100CC000EDE7134BDA68E023DB001340802292004B
:100CD000934215D00AD8002B16D0013AFF3A93421E
:100CE00010D11048DBE780200002D8E7C022920034
:100CF00093420BD00132FF32934203D10A48CEE730
:100D00000A48CCE70020CAE70948C8E70948C6E70F
:100D100000800C40003C000400366E010000002002
:100D20000400002040B56400406F4001C0D8A70017
:100D3000804F1200809FD50008B5FFF79DFF0F225E
:100D4000034B5B681340D840024B186008BDC04697
:100D500000800C4008000020014B024A9A60704756
:100D600000ED00E000000000802000027047C04657
:100D7000FA2080007047C046014B18687047C04693
:100D80000000002030B51A4887B01A4901F066F912
:100D900019481A4901F062F919480121FFF780FA50
:100DA0000220022104220023FFF72AFE6A46154B87
:100DB00023CB23C223CB23C213480121FFF770FAB0
:100DC000124D0220012101220023FFF719FE042207
:100DD000012302200021FFF713FE281C694602F0C0
:100DE000E3FD03236A6D13436B6507B030BDC04656
:100DF000B8550000D0000020D455000004010020A8
:100E000000820400A05500000042040000C400401D
:100E100038B50425034C6420A56500F0ADFCE565FC
:100E200038BDC0460060004010B50178441C002960
:100E300007D00448013402F0FDFD631E1978002933
:100E4000F7D110BD00C4004038B5051C002403E0F4
:100E500028550134632C06D0034802F0E3FD0A282C
:100E6000F6D100232B5538BD00C40040F0B54746ED
:100E700080B4061C9AB00F1C002400291AD0154B10
:100E8000984609E001A8414601F090F900280CD1EC
:100E90000134E4B2BC420DD001A8FFF7D5FF01A890
:100EA000311C01F083F9051EECD0281C1AB004BCDB
:100EB0009046F0BD0021084801F0E0F9301C01F037
:100EC000BBF90648002101F0D9F9054801F0C6F93F
:100ED0000025EAE7605600002C560000545600003A
:100EE000305B000038B51D4801F00CFAFFF790FFA9
:100EF0001B480521FFF7BAFF041C082000F078FC0E
:100F0000002C01D1201C38BD164801F0FBF9164D0C
:100F1000281CFFF789FF154C0521201CFFF7A6FFB1
:100F200000280BD1022000F063FC281CFFF77CFF97
:100F3000201C0521FFF79AFF0028F3D00C4801F090
:100F4000E1F90C48FFF770FF201C0521FFF78EFF29
:100F500009480521FFF78AFF041CD3E76856000003
:100F60007C56000084560000A4560000B0560000D5
:100F7000B4560000D45600000057000038B513489E
:100F800001F0C0F91248FFF74FFF124D0521281C50
:100F9000FFF76CFF041E09D10F4801F0BFF9FFF7FE
:100FA00037FF022000F024FC201C38BD0B4801F064
:100FB000A9F90B48FFF738FF0521281CFFF756FF5A
:100FC00008480521FFF752FF041CEAE7105700000C
:100FD00034570000B056000080570000445700000E
:100FE000645700007057000010B596B0041CFFF75E
:100FF00079FF002800D189E0464801F02FF94648E2
:1010000001F01AF9206801F033FB444801F014F9AB
:10101000606801F02DFB424801F00EF9A06801F074
:1010200027FB404801F008F9E06801F021FB3E4849
:1010300001F002F9206901F01BFB3C4801F0FCF8CB
:10104000606901F015FB3A4801F0F6F8208B01F0D9
:101050006FFB206801A901F061F8606804A901F044
:101060005DF8A06807A901F059F8E0680AA901F045
:1010700055F820690DA901F051F8606910A901F037
:101080004DF813A9208B01F049F82A48FFF7CCFE50
:101090002948FFF7C9FE294C201CFFF7C5FE284848
:1010A000FFF7C2FE201CFFF7BFFE2648FFF7BCFE7D
:1010B00001A8FFF7B9FE2448FFF7B6FE04A8FFF722
:1010C000B3FE2248FFF7B0FE07A8FFF7ADFE2048A9
:1010D000FFF7AAFE0AA8FFF7A7FE1E48FFF7A4FE27
:1010E0000DA8FFF7A1FE1C48FFF79EFE10A8FFF712
:1010F0009BFE1A48FFF798FE13A8FFF795FE1848C5
:10110000FFF792FE17480521FFF7B0FEFFF736FF05
:1011100016B010BDA8570000DC570000E8570000CB
:10112000F0570000F8570000005800000858000071
:101130001058000018580000D00000202858000067
:10114000040100202C5800003858000044580000CA
:101150004C58000058580000645800006C580000BB
:10116000745800007858000010B584B0041CFFF7D4
:10117000B9FE002829D0174801F070F8201C01F0B2
:1011800077FA154801F06AF801A9201C00F0C6FFA3
:101190001248FFF749FE1248FFF746FE114C201C8B
:1011A000FFF742FE1048FFF73FFE201CFFF73CFE12
:1011B0000E48FFF739FE01A8FFF736FE0C48FFF78F
:1011C00033FE0C480521FFF751FEFFF7D7FE04B0B0
:1011D00010BDC04680580000985800001858000004
:1011E000D00000202858000004010020A85800006A
:1011F000745800007858000030B585B0051C0C1CF0
:10120000FFF770FE002803D1FFF7B8FE05B030BD30
:10121000194801F023F8201C01F02AFA174801F0C0
:101220001DF801A9201C00F079FF1548FFF7FCFD0F
:101230001448FFF7F9FD144C201CFFF7F5FD134887
:10124000FFF7F2FD201CFFF7EFFD002D0CD0012D64
:101250000ED001A8FFF7E8FD0D48FFF7E5FD0521D9
:101260000C48FFF703FECFE70B48FFF7DDFDF0E783
:101270000A48FFF7D9FDECE7B4580000D058000049
:1012800018580000D0000020285800000401002059
:101290007458000078580000E0580000EC58000036
:1012A00008B5002810D0012830D0F020400001F00F
:1012B000E3FE00212348244A01F00EFAF02040000A
:1012C00001F0DAFE012008BD0821042200230230CB
:1012D000FFF796FBF020400001F0CEFE022008212F
:1012E00001220023FFF78CFB00210122174803682D
:1012F0001B0A1A42DED00131C829F8D1144801F086
:101300001BF81C2000F076FE0020DCE70A210422F6
:1013100000230020FFF774FBF020400001F0ACFE3A
:1013200000200A2101220023FFF76AFB002101228D
:10133000084803689B0A1A42BCD00131C829F8D179
:10134000DCE7C046245900003459000064600040C6
:10135000F85800001C600040F8B54F464646264B42
:10136000C0B4994680238027DB00061C0824002592
:1013700098467F4209E0012E28D06D08013C4620A6
:10138000E4B201F079FE002C1BD0002EF3D1002333
:10139000022008210122FFF733FB184B6D081B6860
:1013A000DB0501D53D43EDB20220082104220123D3
:1013B000013CFFF725FBE4B2462001F05DFE002C66
:1013C000E3D1281C0CBC90469946F8BD01220023AD
:1013D00000200A21FFF714FB4B4642461B686D08AC
:1013E000134201D03D43EDB200200A210422012323
:1013F000FFF706FBC2E7C0461C6000406460004087
:1014000070B5041C0D1C1B480121FEF749FF1A484A
:101410000121FEF745FF002C0AD1184C2378002B40
:1014200015D08022164B9200002D0ED09A6570BD0B
:10143000012CFCD1134E3378002B13D08022104B9B
:101440001201002D0CD19A63F1E7DA65EFE72B1C4E
:10145000022009210422FFF7D3FA01232370E6E7D3
:101460005A63E4E701200B2104222B1CFFF7C8FA82
:101470003470DCE74081040000820400A2000020F8
:1014800000600040A1000020F0B54E46454657469A
:10149000E0B4061C0D1C00284AD0012859D0304B5E
:1014A000082498468023DB0001279A460BE0002E93
:1014B00026D0012E37D03C2001F0DEFD013CE4B205
:1014C0006D08002C13D02F42F1D1002E1ED0012E1A
:1014D000F1D1434652463C205A6101F0CDFD4346CE
:1014E0005246013CE4B21A616D08002CEBD1002E8B
:1014F00025D0012E28D01CBC90469946A246F0BDAE
:10150000802342465B00D3659365D4E780235B006C
:10151000994643464A463C20DA6501F0ADFD434614
:101520004A469A65CAE7434652465A611A61C2E77B
:101530000220082104220023FFF762FAAFE780228D
:10154000074B52009A65D6E78022054BD2001A61FC
:10155000D1E700200A2104220023FFF751FA9EE779
:1015600000600040F0B50023061C85B001AC23707C
:10157000637001F0DDFC301C0121FFF741FF052005
:1015800000F0FAF8301CFFF78BFE002852D0301C18
:10159000CC21FFF779FF301C4421FFF775FF301C89
:1015A000FFF7DAFEFA27431E98410125C0B27F00FB
:1015B00009E0301CFFF7D0FE431E98410135ADB263
:1015C000C0B2BD4255D00028F3D0291C404A414842
:1015D00001F082F8301CFFF763FE301CCC21FFF7CE
:1015E00053FF301CBE21FFF74FFF0025301CFFF7D3
:1015F000B3FE60550135092DF8D101F01BFD002E19
:1016000030D0012E55D0301C0021FFF7F9FE637851
:101610000721181C22781B0288439B18002816D12A
:1016200098B203F0FFFB00222B4B02F0B1FD03F058
:10163000C3FB0AE001F0FEFC002E0CD0012E2AD0E4
:10164000301C0021FFF7DCFE002005B0F0BD234A6E
:101650001343181CE5E70220082100220023FFF7AE
:10166000CFF9EDE70220082100220023FFF7C8F997
:10167000C9E71B4800F060FE01F0DCFC002E11D031
:10168000012E1DD0301C0021FFF7BAFE1D2000F0F6
:10169000B1FC0020D9E700200A2100220023FFF737
:1016A000AFF9CDE70220082100220023FFF7A8F9B7
:1016B000E8E700200A2100220023FFF7A1F9A2E7B2
:1016C00000200A2100220023FFF79AF9DAE7C0463A
:1016D000345900003859000000404F400000FFFF1F
:1016E00050590000034B9A691A620122024B1A708A
:1016F0007047C04600200040A300002010B51648E7
:1017000082B00121FEF7CCFD14480C21FEF7ACFF9E
:1017100013480121FEF7C4FD0221124B01ACDA6926
:10172000201C0A43DA61802299610F4B7F315201FC
:10173000FF315A500D491A60032203F0CDFD0023FA
:10174000201C237001F0A6FF094800F0DBFD0122F8
:10175000084B1A7002B010BD0023020002001C00EA
:10176000800612000000084000E100E080590000FF
:1017700084590000A6000020194B10B51B78041CEA
:10178000002B02D0002825D110BDFFF7B7FF002C99
:10179000FAD0201C03F082FBE022124B120602F06A
:1017A00003FB002807D1104800F0C6FD0F480021B8
:1017B000FEF776FDE8E7211C002001F041FF012043
:1017C00001F05EFF0120FFF763F808480021FEF7F3
:1017D00067FDD9E705480121FEF762FDD9E7C0465C
:1017E000A6000020FFFF6F41A059000080061200F4
:1017F0001B4B10B51B78041C002B02D0002817D1FE
:1018000010BDFFF77BFF002CFAD0211C1548164AAB
:1018100000F04EFFFA2189006143144B99420CD924
:10182000134800F089FD13480021FEF739FDE7E772
:1018300010480121FEF734FDE7E7002001F000FF2A
:1018400001230D4C0120237001F01AFF0120FFF746
:101850001FF80023074800212370FEF721FDCFE782
:10186000A6000020C8590000E0590000FFFFFF005B
:10187000A059000080061200A5000020014B187836
:10188000C0B27047A40000200022014B1A707047BC
:10189000A4000020054B10B500205C6801F0F0FEAC
:1018A000FA21201C890002F0CDF910BD000008408B
:1018B00008B5002001F0E4FE0222054B9A61054BB9
:1018C0001B78002B02D0044B013A1A7008BDC046A9
:1018D00000000840A5000020A400002070B51E4DA7
:1018E00084B02B78002B33D11C480121FEF7D8FCA3
:1018F0001B480121FEF7D4FC1A480121FEF7D0FC59
:10190000002001210122FEF76BFE6A46164B43CBF5
:1019100043C21B6800201360144B002102930B226A
:101920000123FFF76DF8002001210B220123FFF7AF
:1019300067F803230E4869468363826B0D4B13409F
:10194000836301F075FC01230B482B7000F0DAFC77
:10195000002004B070BDC046A700002000B2040003
:101960000082040000230200E8590000DDFB0500AE
:1019700000A00040FFF8FFFFF859000010B5224812
:1019800082B00121FEF78CFC20480121FEF788FC83
:101990000020022101220123FFF732F802200D214D
:1019A00001220123FFF72CF802200E21012201233E
:1019B000FFF726F88E23164A16495B00D1501649C8
:1019C0000124D1500222154B00201A603E321A60C9
:1019D0000221009401943E3A0023FEF79FFF0094F9
:1019E000019402200D210D220023FEF797FF0E2106
:1019F0000E220023009401940220FEF78FFF084876
:101A000000F080FC02B010BD4081040000820400A0
:101A100000600040AAAA00005555000000E100E067
:101A20000C5A0000014B1878C0B27047A800002083
:101A3000014B18707047C046A8000020002808D04D
:101A40000023012801D0181C7047044B1B78DBB21F
:101A5000F9E7034B1B78DBB2F5E7C046A90000208D
:101A6000AA000020002805D0012800D07047034BB1
:101A70001970FBE7024B1970F8E7C046A900002077
:101A8000AA00002008B58A230C4A5B00D358042B17
:101A90000DD08022D201934205D08E230849074AF7
:101AA0005B00D15008BD0122064B1A70F5E70020FB
:101AB00001F0E6FD0122044B1A70EEE700600040E1
:101AC00055550000A9000020A80000208A23084ADC
:101AD0005B00D25880239B019A4202D10122054B20
:101AE0001A708E230449024A5B00D1507047C046E9
:101AF00000600040AA000020AAAA000008B5FFF775
:101B000091FF0023002803D00020FFF791FF01235D
:101B1000181C08BD10B5022192B0012000F014FA83
:101B20002B4800F0E5F92B4C2B4B2088984203D929
:101B30000A2102F087F880B2694600F0C3FA6846CD
:101B400000F0D6F9254800F0D3F9A088224B98423E
:101B500003D90A2102F076F880B203A900F0B2FAA4
:101B600003A800F0C5F91E4800F0C2F903210120C6
:101B700000F0EAF91B4800F0BBF906A9E06800F0A4
:101B8000A1FA06A800F0B4F9174800F0B1F909A9C4
:101B9000206900F097FA09A800F0AAF904210120B1
:101BA00000F0D2F9114800F0A3F90CA9A06800F0E8
:101BB00089FA0CA800F09CF90D4800F099F96069C9
:101BC0000FA900F07FFA0FA800F092F912B010BD33
:101BD000405A0000640100200F270000445A000012
:101BE0004C5A0000505A0000545A00005C5A000041
:101BF000605A0000884AF8B55F469346874A4446D3
:101C00009046874A56464D4692460522F0B4914684
:101C10000027844C844E2378844D052B00D999E00D
:101C20009B00F3589F4600F03BF9814800F060F9B3
:101C3000FFF770FFE1200001FFF7DAFD4B4623704C
:101C40000523EDE77B4800F069FB04232370E7E7F9
:101C5000794800F063FB00F023F9784800F048F978
:101C6000FFF758FF281CFFF7BFF904232370D7E7BD
:101C700000F016F9724800F03BF90020FFF772FC03
:101C8000002800DAC4E028600120FFF76BFC002880
:101C900000DABAE0686001F077FF296828834246DD
:101CA000684800F005FD68486968424600F000FD9C
:101CB000298B6648664A00F0FBFC02232370AFE7DD
:101CC0000122644B1A64644BDB6C1B0E812B07D81A
:101CD000624A634B1A60634A634B11680B4013609E
:101CE000002302210022614800F034FB00F0D8F804
:101CF000584600F0FDF80020FFF73EFD0020FFF7FA
:101D000077FDFFF73BFE01F09BFEFFF73BF85848DD
:101D100000F004FB00F0C4F8564800F0E9F8002099
:101D2000FFF722FA012323707AE7FFF7E7FE002886
:101D300062D1FFF7A3FD002853D10020FFF77EFEFC
:101D400000280CD10120FFF779FE002807D10123DC
:101D5000237065E70A2000F04DF923785DE7002045
:101D600001F08EFC504600F079FA0421424800F060
:101D7000B9FA424800F0D2FA00F092F8404800F078
:101D8000B7F8FFF7C7FE0020FFF758FE00281AD06B
:101D900000200121FFF730FA00200021FFF762FE4A
:101DA0004B46237000F07CF8364800F0A1F8FFF7AE
:101DB000B1FEFFF76FFDE1233F181B01D81BFFF7B2
:101DC00017FD237829E70120FFF738FE0028E7D028
:101DD00001200121FFF710FA01200021FFF742FE48
:101DE000DEE7FFF751FD504600F038FA264804219F
:101DF00000F078FA0027A0E7504600F02FFA2348B9
:101E0000042100F06FFA002793E700236B6042E79C
:101E100000232B6038E7C046685A0000305B0000A2
:101E20002C5B0000AB000020285A00006401002059
:101E30001C5B0000085B0000D45A0000F05A000050
:101E4000AC5A0000BC5A0000C45A0000CC5A000032
:101E5000D05A000000000C40B081E00F05000004E3
:101E600018600C40E4800C40FFFFFFFE00C0004003
:101E70007C5A0000985A0000445B0000505B000050
:101E8000645B0000785B00003C5B0000345B00009A
:101E9000FEE7C046FEE7C046FEE7C046FEE7C04696
:101EA00000B587B0FFF71AFD00281AD10E49684621
:101EB000022203F011FAE42301A90B80E33B4B80DB
:101EC0006B464B60022309480B8101F063FB01283C
:101ED00004D1064801F0E0F90128FAD040B207B079
:101EE00000BDFA20FAE7C046845B000000A0004075
:101EF00010B586B0041CFFF7F1FC00281FD1237831
:101F0000002B1AD000230133DBB2E25C002AFAD1A5
:101F10009BB2E42201A90A804C60E33A0B81094894
:101F20004A8001F037FB012804D1064801F0B4F9DA
:101F30000128FAD040B206B010BD0023E9E7FA202C
:101F4000F8E7C04600A0004030B50C1C184989B025
:101F5000051C0431042202A803F0BEF9FFF7BEFC01
:101F6000002822D1FE2301AA137002AB9C468021D7
:101F70006444013C2378013D4942EB180B43537004
:101F8000E42303A90B80E33B4B8001334A600B81C0
:101F9000084801F0FFFA012804D1064801F07CF955
:101FA0000128FAD040B209B030BDFA20FAE7C046A5
:101FB000845B000000A0004008B50A480121FEF73C
:101FC0006FF909480121FEF76BF904220023022072
:101FD0000F21FEF715FD054800F094F90122044B8E
:101FE0001A7008BD40810400008204008C5B000070
:101FF000AD000020134B10B51B78041C002B1DD026
:10200000114B1C70231C1E3B192B0BD805210F48AC
:1020100000F034F9201C00F02BFB0D48052100F0E6
:1020200061F910BD05210B4800F028F9201C00F0D3
:102030001FFB0948052100F055F9F2E7FFF7BCFF47
:10204000DEE7C046AD000020AC000020DC5B0000F5
:10205000005C0000A45B0000B05B0000F0B587B03E
:1020600001AD2A1C164BD0CBD0C21C6814601B7962
:1020700013710378002B20D000230133DBB2C25C44
:10208000002AFAD19EB2002B13D00A1C0F27013E62
:10209000B6B2013676008E19047824092C5D1470CE
:1020A000047801303C402C5D54700232B242F3D1CE
:1020B0005A0000238B5407B0F0BD0022F9E7C04658
:1020C000085C0000F0B5051C85B00F1C002821D06D
:1020D000002401AE281C0A2101F03AFE0B1C681AEC
:1020E00030330A21335501F0ADFD0134E4B2051E51
:1020F000F0D1211C3A1C002C08D03319013B1B786D
:10210000013CE4B213700132002CF6D100237B5461
:1021100005B0F0BD30230B707870F9E7F0B587B0EB
:1021200001AB1C1C1F4AE0CAE0C415682560127987
:1021300022711D4A904222D9020F9A5C0A70020154
:10214000120F9A5C4A700202120F9A5C8A700203A4
:10215000120F9A5CCA700204120F9A5C0A7102058F
:10216000120F9A5C4A710206120F9A5C8A710F2252
:1021700010401B5CCB7100230B7207B0F0BD020452
:10218000120F9A5C0A700205120F9A5C4A700206DE
:10219000120F9A5C8A700F2210401B5CCB700023D8
:1021A0000B71EAE7085C0000FFFF000030B50D7816
:1021B0000024002D0FD000230133DBB2CA5C002ABB
:1021C000FAD19C4207D2025D0B5D9A4205D10134DF
:1021D000E4B2002DEFD1012030BD0020FCE7C04665
:1021E000F0B5071C85B00D1E23D0002401AE281CBD
:1021F0000A2101F0ADFD0B1C681A30330A2133555A
:1022000001F020FD0134E4B2051EF0D1211C0023B1
:10221000002C0AD03A1C3319013B1B78013CE4B274
:1022200013700132002CF6D10B1C0022FA5405B0B9
:10223000F0BD0023F9E7C04638B50178002909D080
:10224000054D441C2868013401F0F4FB631E197825
:102250000029F7D138BDC0468001002010B5FFF736
:10226000EBFF054C0D21206801F0E4FB20680A21FA
:1022700001F0E0FB10BDC0468001002010B5041C39
:10228000062903D80F4B89005B589F460E48FFF77D
:10229000D3FF201CFFF7D0FF10BD0C48FFF7CCFF89
:1022A000201CFFF7C9FF0848FFF7C6FFF4E70848FE
:1022B000F4E70848F2E70848F0E70848EEE708487E
:1022C000ECE7C0461C5C0000A05C0000D05C000095
:1022D000A85C0000B05C0000B85C0000C05C0000BE
:1022E000C85C000010B5FFF7C9FF054C0D21206840
:1022F00001F0A0FB20680A2101F09CFB10BDC04644
:102300008001002010B5041C0348FFF795FF201C36
:10231000FFF7A4FF10BDC046D85C000010B5041C38
:1023200005210448FFF7AAFF201C0521FFF7DAFF6B
:1023300010BDC046E05C000010B5041C002104483C
:10234000FFF79CFF201C0021FFF7CCFF10BDC0460B
:10235000E85C0000F0B54F464646C0B487B09146F1
:102360006A46A94C9846A94B20600E1C83CB83C2B9
:1023700083CB83C2A6480121FDF792FF2068A54BBD
:102380006D4698420FD0A44B984200D101E14B46D4
:10239000002B0FD1291C01F007FB062E32D89F4BD2
:1023A000B6009B599F469E480121FDF779FF4B4699
:1023B000002B09D00422012300200921FEF720FB75
:1023C0008022984B92001A612068924B984200D16B
:1023D000C9E0914B9842DDD1052EDBD8924AB3007B
:1023E000D3589F460220012101220023FEF708FB5B
:1023F0000220002104220123FEF702FB2068291C91
:1024000001F0D2FA03232268516D0B435365434612
:10241000002B2DD004222368D96C0A43DA640122F0
:10242000D96C0A43DA647B4A934200D1A9E07A4A24
:10243000934200D19EE07D48FFF7FEFE7C48FFF707
:102440000DFF7C48FFF7F8FE7B48FFF707FF7B484E
:10245000FFF764FF7A48FFF76FFF7A48FFF7FEFE49
:10246000012223685A6407B00CBC90469946F0BD1F
:102470006E48FFF7E1FE7448FFF7F0FE6D48FFF786
:10248000DBFE6D48FFF7EAFE6C48FFF747FF6C483C
:10249000FFF752FF6D48FFF7E1FEE4E722686C4961
:1024A000536D0B435365B2E704212268FF31536D2E
:1024B0000B435365ABE704200C2101220023FEF7F8
:1024C0009FFA04200D2104220123FEF799FA2068C7
:1024D000291C01F069FA22685E49536D0B4353656C
:1024E00095E702200A2101220023FEF789FA022043
:1024F0000B2104220123FEF783FA2068291C01F036
:1025000053FA22685449536D0B4353657FE7022009
:10251000022101220023FEF773FA02200121042286
:102520000123FEF76DFA2068291C01F03DFA2268AC
:102530004A49536D0B43536569E70020002101228E
:102540000023FEF75DFA0520022104220123FEF795
:1025500057FA2068291C01F027FA22684049536D78
:102560000B43536553E7062E00D913E73D4AB300EA
:10257000D3589F4680223C4B52001A6092181A6032
:1025800059E78022384B92021A608022D2021A60E8
:1025900051E736480121FDF783FE08E703200621B5
:1025A00001220023FEF72CFA032007210422012335
:1025B000FEF726FA2068EDE6022001210122002321
:1025C000FEF71EFA0220002104220123FEF718FA6A
:1025D0002068DFE60120082101220023FEF710FA1F
:1025E0000120072104220123FEF70AFAB1E70420A3
:1025F0000B2101220023FEF703FA04200A21042202
:102600000123FEF7FDF9F9E680010020885C000057
:102610000082040000C0004000C40040385C00009C
:102620000032040000600040545C0000A05C000028
:10263000F05C0000D85C0000205D00003C5D000004
:10264000585D00007C5D0000A85D0000D45D0000C6
:10265000030600000303000003020000030500005E
:10266000030400006C5C000000E100E00042040094
:1026700030B5041C85B000280FDB01AD002807D160
:1026800030236C702B70281CFFF7D6FD05B030BDD1
:10269000281C211CFFF7A4FDF5E7044801ADFFF756
:1026A000CBFD6142281CFFF79BFDECE7005E0000BC
:1026B00070B5061C0D1C141C0648FFF7BDFD301C30
:1026C000FFF7BAFD281CFFF7D3FF201CFFF7C6FD5C
:1026D00070BDC046D85C000070B5061C0D1C141CF3
:1026E00007480521FFF7CAFD301C0521FFF7C6FD8D
:1026F000281CFFF7BDFF201C0521FFF7F3FD70BD6F
:10270000E05C000070B5061C0D1C141C074800217D
:10271000FFF7B4FD301C0021FFF7B0FD281CFFF7C8
:10272000A7FF201C0021FFF7DDFD70BDE85C000065
:1027300010B5FFF79DFF054C0D21206801F07AF9D7
:1027400020680A2101F076F910BDC0468001002002
:1027500010B53F4B84B098422CD803041B0F1A1CB1
:102760003732092B01D830331A1C030501AC1B0F7B
:1027700022701A1C3732092B01D830331A1C030679
:102780001B0F62701A1C3732092B01D830331A1C08
:102790000F231840031CA2703733092856D9E37061
:1027A000002323712B48FFF747FD201CFFF744FD52
:1027B00004B010BD030F1A1C3732092B01D8303377
:1027C0001A1C030101AC1B0F22701A1C3732092B93
:1027D00001D830331A1C03021B0F62701A1C3732E7
:1027E000092B01D830331A1C03031B0FA2701A1CCB
:1027F0003732092B01D830331A1C202323710304EC
:102800001B0FE2701A1C3732092B01D830331A1C07
:1028100003051B0F62711A1C3732092B01D83033A4
:102820001A1C03061B0FA2711A1C3732092B01D880
:1028300030331A1C0F231840031CE2713733092868
:1028400000D8073B237200236372ABE7073BA6E780
:10285000FFFF0000045E000070B5061C0D1C141C78
:102860000648FFF7E9FC301CFFF7E6FC281CFFF7E1
:102870006FFF201CFFF7F2FC70BDC046D85C000063
:1028800038B5124B124C18682568036C83646B1CB6
:10289000236001F0C7F80F4B216858554A1E985C19
:1028A0000D280BD0985C0C2808D04D2905D90120A3
:1028B000094A107000225A54226038BD012006498E
:1028C0000870002199542160F7E7C046800100207C
:1028D000B000002084010020AE0000200C4B10B599
:1028E0001868036C8364DB0705D50A4B1A684F2A06
:1028F00002D900221A6010BD07498C5C002CF8D068
:10290000895C541CC9B21C6001F094F8F3E7C0461E
:1029100080010020B4000020D401002008B5FFF79A
:10292000AFFF08BD08B5FFF7D9FF08BD70B588B087
:10293000051C0C1C161CFEF7D1FF00281CD103A996
:1029400002AB220A1A705C704B60022301AA0830A5
:102950000B81013B4880CA600B82084816700D80CD
:1029600000F018FE012804D1044800F095FC01286D
:10297000FAD040B208B070BDFA20FAE700A00040DB
:1029800070B588B0061C0D1C141CFEF7A7FF0028AC
:102990001DD101AA2B0A210A137002AB197003A9D9
:1029A00055704A600222083048800A81CB600A8252
:1029B00008485C700E8000F0EDFD012804D1054848
:1029C00000F06AFC0128FAD040B208B070BDFA20CD
:1029D000FAE7C04600A0004070B588B0061C0D1C88
:1029E000141CFEF77BFF002822D101AA2B0A1370CA
:1029F000210E02AB1970210C5970210A997003A99C
:102A00005570DC704A60CB60022204230830488095
:102A10000A810B8207480E8000F0BCFD012804D11A
:102A2000044800F039FC0128FAD040B208B070BD6B
:102A3000FA20FAE700A0004070B586B0061C0C1C16
:102A4000151CFEF74BFF00281AD16A46230A1370A3
:102A5000042301A94B8002230B81013B4A60CD6016
:102A60000B82084854700E8000F094FD012804D1B8
:102A7000044800F011FC0128FAD040B206B070BD45
:102A8000FA20FAE700A0004070B588B0061C0C1CC4
:102A9000151CFEF723FF002821D103A901AB220A50
:102AA0001A705C704B600223042202AC20706070CC
:102AB0000B81CC600B820B480E804A8000F06AFDCF
:102AC000012804D1074800F0E7FB0128FAD0237859
:102AD00062781B0213432B8040B208B070BDFA200D
:102AE000FAE7C04600A0004070B588B0061C0C1C78
:102AF000151CFEF7F3FE002829D103A901AB220A19
:102B00001A705C7004224B60022302AC207060706B
:102B1000A070E0700B81CC600A820E480E804A8063
:102B200000F038FD012804D10A4800F0B5FB012867
:102B3000FAD023781A0663781B041343E278134310
:102B4000A278120213432B6040B208B070BDFA2085
:102B5000FAE7C04600A0004008B586210122FFF731
:102B6000E5FE08BD30B583B06B46DC1D0D1C221C94
:102B70003021FFF761FF01222378DB06DB0F534092
:102B80002B7003B030BDC04608B587214022FFF747
:102B9000CDFE08BD30B583B06B460D1CD91D041C9D
:102BA000FFF7E0FF6B46201C31219A1DFFF744FF21
:102BB000002808D16B46694601229B79C9791340E8
:102BC000994202D0287003B030BD2A70FBE7C0469E
:102BD00070B5051C0024194E82B0211C2D31325DC8
:102BE00089B2281C0134FFF7A1FE5B2CF5D1281C0B
:102BF00087214022FFF79AFE6B46DC1D00232370DD
:102C0000281C211CFFF7C6FF2378002BF8D0281CB6
:102C100086210122FFF78AFE281C87210022FFF768
:102C200085FE281C08210922FFF780FE281C0B21A5
:102C30000022FFF77BFE02B070BDC0463C5E000084
:102C400030B583B06B46DC1D0D1C221C4B21FFF7F9
:102C5000F3FE2378142B05D00A2B01D1083B2B80DF
:102C600003B030BD133B2B80FAE7C046F0B583B00C
:102C70006B469E1D0C1C311C051CFFF7E1FF3388C1
:102C8000071C0120002B0DD0012B0ED0322C63D05D
:102C90003DD9C82C20D0FA235B009C4268D0642C1C
:102CA00027D0012040B203B0F0BD322C00D197E014
:102CB0003DD8142C00D18FE0212C71D00F2CF0D1F5
:102CC0005E211D22281CFFF75BFE281C61212722A4
:102CD000FFF756FE381CE5E75E21484A281CFFF73F
:102CE0004FFEBE22281C61219200FFF749FE381CCE
:102CF000D8E7E6225E215200281CFFF741FEF522AC
:102D0000281C61215200FFF73BFE381CCAE7142C37
:102D10003AD0212CC5D1281C5E216022FFF730FE5D
:102D2000281C61216E22FFF72BFE381CBAE7C82C45
:102D300046D0FA235B009C4236D0642CB1D15E2190
:102D40002F4A281CFFF71CFEE222281C612192005A
:102D5000FFF716FE381CA5E75E21AD22281CFFF701
:102D60000FFE281C6121C622FFF70AFE381C99E7D6
:102D70005E21244A281CFFF703FE281C6121224AF9
:102D8000FFF7FEFD381C8DE75E211E22281CFFF791
:102D9000F7FD281C61212222FFF7F2FD381C81E794
:102DA000281C5E21D622B9E75E21184A281CFFF7AD
:102DB000E7FD281C6121164AFFF7E2FD381C71E788
:102DC0005E21144A281CFFF7DBFD281C6121124AF2
:102DD000FFF7D6FD381C65E7281C5E2151229DE7D0
:102DE000D7225E215200281CFFF7CAFDF422281CBE
:102DF00061215200FFF7C4FD381C53E7D9020000DF
:102E0000E10200008F040000A4040000910500000E
:102E1000C1050000E103000096040000F0B583B096
:102E20006B469C1D221C0F1CDE21051CFFF72CFE8F
:102E3000061C20888005800D2080784302F02EF843
:102E4000064B074A01F0A4F901F034F86C21021C8A
:102E5000281CFFF7C1FD301C03B0F0BD3333F13F38
:102E60003333333330B583B06B46DC1D00230D1C88
:102E7000221CE5212370FFF7DFFD23782B7003B0C0
:102E800030BDC04630B583B06B460D1C10219C1D73
:102E90000023FF31221C2380FFF7F6FD23882B80BF
:102EA00003B030BD30B583B06B469C1D0D1C221C99
:102EB0009621FFF7E9FD23882B8003B030BDC04683
:102EC000FF2330B583B00B706B46DC1D221C0D1C3C
:102ED0008921FFF7B1FD1F2223781340172B02D859
:102EE000024AD35C2B7003B030BDC046245E0000A4
:102EF00030B583B06B469C1D0D1C221C1E21FFF7B4
:102F0000C3FD2388DB045B0D2B8003B030BDC046BE
:102F100010B582B00C1C01AA1621FFF7E5FDFA23BB
:102F2000019A9B0053439BB25B0A238002B010BD01
:102F30000123F0B5002589B004AC314F01AE2370F8
:102F4000304801330121B37135707570B570F5707B
:102F500035717571F57135727572B572F57265708E
:102F6000A570E57025716571A571E57125726572B1
:102F7000A572E5722573FDF793F9321C381C002108
:102F800000F00AFC204B214EFB61A570204D01E0B2
:102F9000B0420ED91A48211C00F08CFB1D48FDF7E9
:102FA000A9FAA378D8400133DBB22860A3700A2BBA
:102FB000EED91948FDF79EFA011C184800F042FEB0
:102FC0002A680023002100F04BFF0023144A8018D8
:102FD0005941144A002300F023FF00221021124B14
:102FE0001860124B00201A70054AD3688B43D360D7
:102FF00004220F4B7131FF315A501A6009B0F0BDF5
:103000000000014000020400FFFF000080841E0059
:10301000BC000020408104007000020000B0710B71
:1030200020A1070040420F00B8000020C00000208F
:1030300000E100E0042080230C4910B5C850BFF324
:103040004F8FBFF36F8F1024094BDA68A243DA6009
:10305000C02252009C6188507F3AFF3A5A6005486E
:103060000021FDF71DF9002010BDC04600E100E081
:103070000000014000020400F0B5474680B4214B37
:1030800082B01A680021002300F0EAFE00231E4AE5
:10309000801859411D4A002300F0C2FE00292AD0A1
:1030A0001B4B1C4F98461C4C01AA7E6AB6B27B6A29
:1030B0009BB2138013889B1B9BB2A342F7D90126B6
:1030C000164D7642401971410029EED14045ECD8A9
:1030D0006B4610499A1D4C6A80B2A4B24B6A9BB2EF
:1030E000138013881B1B9BB29842F7D8002002B0B4
:1030F00004BC9046F0BD064B9842D1D80028F5D0CC
:10310000E6E7C046BC00002020A1070040420F00B7
:10311000E8FD000000000140E7FD00001802FFFF8D
:103120001022044B19690A4203D09A61024B0F3AEC
:103130001A70704700000140C0000020F0B54746FB
:10314000061C80B4141C0F1C002A35D00325314AFC
:103150001D4003681340036001682B020A401A43B4
:103160000260002F40D033689B071FD5032D2BD161
:10317000AE21294B4900181CFCF7F8FF274B595D7D
:10318000614300292AD0A400E0434018C01900F090
:1031900059FD441E35D4224B9C422AD833689B07E4
:1031A00002D5002C00D1013434610AE0032DDFD0B8
:1031B0001C4BAA00D3580AE012211748FF31FCF734
:1031C000D5FF04BC9046F0BD174BAA00D3589F42D0
:1031D000CED9124B595D61430029D4D16E210E48DE
:1031E000FF31FCF7C3FFECE71048FDF783F9071C3C
:1031F000B9E7094B9846BA2140464900FCF7B6FFAB
:10320000CCE77421044BFF31181C9846FCF7AEFF45
:10321000F1E7C046FFFCFFFFD85E0000BC5E000087
:10322000FF010000CC5E0000C05E00004081040091
:1032300038B5164B041C0D1C984204D0D1211448FB
:103240004900FCF793FF002302226363114B201C0B
:10325000236323689343191C6B78013A53405B0046
:103260000B4323602B7B6968AA68FFF767FF074B56
:103270002D789C4204D08E210548FF31FCF776FF63
:103280000122236893431D43256038BD00A0004000
:10329000D85E0000FFFF0100F8B55F4656464D4678
:1032A0004446B84BF0B498420CD0FC21B6484900D3
:1032B000FCF75CFF042040423CBC90469946A24685
:1032C000AB46F8BDB14B9A6819789446B04A5E880F
:1032D000904680229246403A91463C3A93461D7968
:1032E000826AC027141CFF003C4000D007E1082977
:1032F00000D9D9E047468C003C59A74607215E809B
:1033000019701D71920619D5ED0065449D4C2A89EE
:103310005988E6698A4200D8EAE06D68481C80B2A4
:1033200058806E54824200D8E2E004236360012A90
:1033300004D0013A904201D1043363600120BBE71D
:103340005146114200D0E8E04946114200D0A8E0C1
:1033500006225E801A701D710120ADE7EA0062440A
:103360001489B44200D9E9E0624656885A460135CC
:10337000EDB2324000D0B8E00124264000D0FDE09C
:10338000012DADD95E801D7108221A707D4B063A61
:103390005A60012090E75146114200D0BDE04946F5
:1033A000114200D1DBE06246016359465288114266
:1033B00078D007225E801D711A7001207CE762467A
:1033C0005E801D715188CA0600D47DE062460621E8
:1033D0001288120A0A40EA310A4301211970694B26
:1033E00001205A62596067E75146114200D094E0CB
:1033F0004946114272D102225E801A701D7101206D
:103400005AE75146114200D087E04946114200D1A7
:103410009FE04A460263624652885A49D40600D564
:10342000A3E092073ED507221D71ED005E801A7061
:1034300065442B89012B00D080E707334B600120C6
:103440003AE762465E801D715088C20637D56246F3
:1034500006211288120A0A40EA310A43410701D5BF
:1034600001210A4304211970464B03395960012098
:103470005A6221E708211970F8315E801D710A42F5
:1034800000D15BE73F4A1163092258781A70002285
:103490003C4940B24A63012800D00DE75A70002031
:1034A0000AE7016305211BE7FB2205205A70F23A67
:1034B0005E801D711A70334B40425C63FCE66246CD
:1034C000FE2112880A40C9E76246FE2012880240A7
:1034D000890700D481E701210A437EE76246016340
:1034E00052889207DED50321FAE600260321F7E68B
:1034F000012A00D048E70821224A516044E75E8053
:103500001D71910505D5FD22FD205A7009221A7002
:10351000BDE752050ED45878F8E78021194A5E803D
:103520001D7111637F315970F73919700223012021
:103530005360C1E6FE22FE205A70E7E75268711C14
:103540005980915D0F4A1D715162062201201A7047
:10355000B2E601225E801A701D710120ACE60422E1
:103560005E801A701D710120A6E602225E801A702C
:103570001D7163461B7801204B629DE65A801D71C8
:1035800002E7C04600A00040D85E0000C400002052
:10359000985E000038B5254B0C1C98420AD0D1210A
:1035A000234D8900281CFCF7E1FD002C34D0FC20C1
:1035B00040B238BD002934D01C4B9A68D20728D4B9
:1035C00063889A0702D52289002AF0D05B0702D5CA
:1035D000238A002BEBD00022164B01211A711A709E
:1035E0005A80C02259709C60104BFF315A60DA68D3
:1035F0000A4203D0DA69DA680A42FBD1FC220B489E
:103600000D4BD2000363436B13434363FFF744FE48
:10361000CEE720225A60D3E7281C0849FCF7A6FD14
:10362000C5E703480549FCF7A1FDC5E700A0004038
:10363000D85E0000C4000020FFFF01004503000029
:1036400038B5041C0D1C012803D90A48A921FCF730
:103650008DFD2B0E09D1002C04D0012C01D1064B7D
:103660001D6038BD054B1D60FBE70248AE21FCF72D
:103670007DFDF0E7445F00000C00084008000840B2
:103680000121034A13688B43184310607047C046FA
:103690000000084042780378002A01D00222134338
:1036A0008278002A01D004221343014A1360704734
:1036B00000000840F0B54D4644465F465646F0B41B
:1036C000314B85B0051C0C1C984209D02F4B9842F9
:1036D00006D02F4B984203D02E489621FCF746FD8A
:1036E00023789B46002B01D102336B6000236B6271
:1036F000A77862783B06E7789A463B04A779984614
:10370000BB029C46237AE7799946531E9A41637A15
:103710003F02591E8B41DB010193A67A4346711E7D
:103720008E4171010291E67A9201711E8E41300143
:103730000390267B2079711E8E41411E884161795C
:10374000F6004C1EA14154461C434B461C436346A5
:103750001C432743019B3A431343029A40031343FC
:10376000039A090713431E435B4630430143296014
:10377000002B01D001236B6005B03CBC90469946FC
:10378000A246AB46F0BDC046000001400004014027
:1037900000080140B05F0000F8B5244B061C0D1C6A
:1037A000141C984209D0224B984206D0214B9842D3
:1037B00003D02148E121FCF7D9FC022D30D8237831
:1037C000A1789A06637809041B061343A279277A25
:1037D00013430B43E178607A09030B4321790335E6
:1037E00089020B431A1C63792D011B021343E279F2
:1037F000511E8A4152059446A17A7A1E9741421E73
:1038000090414A1E9141E27A3F05120713436246F6
:1038100013433B430001890003430B43AB51F8BD05
:103820000548E221FCF7A2FCC9E7C04600000140C0
:103830000004014000080140B05F0000F0B54746B9
:10384000061C80B40C1C151C1F1C002A53D0002C15
:1038500040D0202F44D0202F2FD9402F1FD0602FB1
:1038600055D10422A30890469D4256D8414669434B
:1038700064014808001900F0E5F92B4B2038C4001A
:103880009C423ED8602233682748934333603368B4
:1038900004401F433760746104BC9046F0BD201C97
:1038A000062100F0CFF9062398468542DED958213B
:1038B0001E48FF31FCF75AFCD8E7002F27D1102211
:1038C000230990469D42D1D94E211848FF31FCF77B
:1038D0004DFCCBE71648FCF70DFE041C202FBAD197
:1038E0000822E30890469D42C0D9A9210F4849000B
:1038F000FCF73CFCBAE724210C48FF31FCF736FC0E
:10390000A5E7BC2109484900FCF730FCBAE7B12122
:1039100006484900FCF72AFCBEE7AE2103484900EF
:10392000FCF724FCA2E7C046F8FF1F008C600000F3
:1039300040810400154B10B5984215D0144B9842A5
:1039400012D0041C13491448FCF710FC134B144A02
:10395000E360002323606260124AA3606361E36452
:10396000A2646365A36510BD0C4B0D4AC3600023C0
:10397000036042600B4A83604361C36482644365B1
:10398000036583650023C365EDE7C04600C00040C2
:1039900000C40040E70300008C600000AA0E000095
:1039A00005100000F91F000038B51B4B051C0C1C4E
:1039B000984207D0194B984204D0AE21184889008C
:1039C000FCF7D4FB281CFFF7B5FFA37C002B04D029
:1039D00080222B68D20513432B60E37C002B03D09D
:1039E0001023227D1343AB65228A637B281C13437B
:1039F000E289616813436B60237BA268FFF71EFFB7
:103A0000637D002B04D080222B68520213432B606D
:103A10002378EB6038BDC04600C0004000C40040C1
:103A20008C600000802203691A42FCD0C069C0B2D9
:103A30007047C046402203691A42FCD04163704778
:103A4000F0B5474680B482B06B465D1D00232B70F5
:103A50003D4B052498463D4E3D4F291C5220FFF713
:103A600001FA011E51D12978381C321CFEF720FEC4
:103A7000FA208000FDF780FE2B78012B03D0013C5B
:103A8000E4B2002CE9D15220FFF7A2F8011E55D173
:103A9000304C5220211CFFF72BFA011E49D1002384
:103AA000E15E2D482D4AFEF717FE2D4C5220211CB9
:103AB000FFF72EFA011E37D121882A482A4AFEF73D
:103AC0000BFEFA2152204900FFF7A8F9011E26D16A
:103AD000C8215220FFF7CAF8011E1BD16B469D1D5D
:103AE0005220291CFFF7CEF9041E04D01F48211CC8
:103AF000321CFEF707FE29881D48321CFEF7ACFE7B
:103B0000201C02B004BC9046F0BD4046321CFEF7BB
:103B1000F9FDA8E71748321CFEF7F4FDDEE716486A
:103B2000321CFEF7EFFDD3E71448321CFEF7EAFD26
:103B3000C2E71348321CFEF7E5FDB0E71148321C1E
:103B4000FEF7E0FDA4E7C046F8600000305B00002F
:103B5000146100002402002068610000D05A0000B7
:103B6000260200209C610000B06100000C62000091
:103B70002C620000E4610000B86100008061000078
:103B80004C6100002C61000070B5522082B0FEF73D
:103B9000FBFF011E31D101AC234E244D05E0522024
:103BA000211CFEF7F7FF002821D12378012BF6D145
:103BB0006B465C1D211C5220FFF782F9011E21D1AA
:103BC0002178002925D16B469C1D211C5220FFF72E
:103BD00069F9011E22D15220FEF7BEFF011E03D05B
:103BE0001348124AFEF78EFD208802B070BD41B224
:103BF0002A1C301CFEF786FDD7E70E480B4AFEF75D
:103C000081FDC8E70C48094AFEF77CFD21780029B0
:103C1000D9D00A48054AFEF775FDD4E70848034A9B
:103C2000FEF770FDD7E7C04664620000305B00001D
:103C3000E86200004462000088620000AC6200009C
:103C4000C8620000002243088B4274D303098B42F0
:103C50005FD3030A8B4244D3030B8B4228D3030C5C
:103C60008B420DD3FF22090212BA030C8B4202D3FE
:103C70001212090265D0030B8B4219D300E0090A26
:103C8000C30B8B4201D3CB03C01A5241830B8B422F
:103C900001D38B03C01A5241430B8B4201D34B0318
:103CA000C01A5241030B8B4201D30B03C01A52417D
:103CB000C30A8B4201D3CB02C01A5241830A8B4202
:103CC00001D38B02C01A5241430A8B4201D34B02EB
:103CD000C01A5241030A8B4201D30B02C01A52414F
:103CE000CDD2C3098B4201D3CB01C01A5241830903
:103CF0008B4201D38B01C01A524143098B4201D33D
:103D00004B01C01A524103098B4201D30B01C01A67
:103D10005241C3088B4201D3CB00C01A52418308E1
:103D20008B4201D38B00C01A524143088B4201D30E
:103D30004B00C01A5241411A00D20146524110466E
:103D40007047FFE701B5002000F00CF802BDC04647
:103D50000029F7D003B5FFF775FF0EBC4243891A5F
:103D60001847C0467047C0468446101C62468C46C1
:103D7000191C634600E0C0461FB500F0A3F90028F7
:103D800001D40021C8421FBD10B500F0E7F8404241
:103D9000013010BD10B500F095F9002801DB0020BE
:103DA00010BD012010BDC04610B500F08BF90028F1
:103DB00001DD002010BD012010BDC04610B500F08F
:103DC00011F9002801DC002010BD012010BDC04603
:103DD00010B500F007F9002801DA002010BD01201D
:103DE00010BDC0461C2101231B04984201D3000CC6
:103DF00010391B0A984201D3000A08391B0998425E
:103E000001D30009043902A2105C40187047C04673
:103E10000403020201010101000000000000000093
:103E2000002B11D1002A0FD1002900D1002802D087
:103E30000021C943081C07B4024802A1401802909F
:103E400003BDC04621FFFFFF03B4684601B50298D9
:103E500000F06AF8019B9E4602B00CBC7047C04659
:103E6000F0B54F46464605042D0C2C1CC0B4170473
:103E7000160C3F0C9946030C7C4375435F43734318
:103E80007D19260CAD199C46AF4203D980235B02F5
:103E90009846C4444B465143434324042E0C240CFF
:103EA0002D0466442C1959188919201C0CBC904605
:103EB0009946F0BD38B500220C4B041C0D1CFFF7D1
:103EC00087FF002804D1201C291C00F075FF38BD95
:103ED000064B0022201C291C00F0F4FB00F06CFFB4
:103EE00080231B069C466044F1E7C0460000E04189
:103EF000F0B583B0161C1F1C0090019101F000F872
:103F0000041C0D1C221C2B1C301C391CFFF7A8FFA5
:103F1000009A019B121A8B410899201C0A604B6081
:103F2000291C03B0F0BDC046F0B5141C83B01D1CA5
:103F30000090019101F0DCF8221C2B1C061C0F1CC8
:103F4000FFF78EFF009A019B121A8B410899301CD3
:103F50000A604B60391C03B0F0BDC046F0B55F4647
:103F60004D4644465646F0B41F035C00DB0F9946AD
:103F70001B4B0E034D00C90F8446360B6D0D8B464F
:103F800090463F0B640D9D420CD0154B9C4210D0C7
:103F90000123A54214D0181C3CBC90469946A24669
:103FA000AB46F0BD311C01230143F4D10C4B9C42C4
:103FB000EED13A430123002AEDD10123A542EAD1F3
:103FC000BE42E8D1C445E6D1CB4506D0002DE2D1B2
:103FD0003043031C581E8341DDE70023DBE7C04666
:103FE000FF070000F0B5574645464E46E0B40F03C4
:103FF0004E00C90F8A4632491D035C0084463F0BC0
:10400000760D90462D0B640DDB0F8E420FD08C4247
:1040100039D0002E10D13843414241418946002C0D
:1040200027D12A4325D1002000290ED108E0391CD0
:1040300001432ED1B44226D0002C0BD09A450DD08E
:104040005346594201231943081C1CBC904699460B
:10405000A246F0BD2A43F3D09A45F1D1A642EFDC47
:104060001ADA504641424841012341421943081C93
:10407000EBE74A46002AE1D058425841012241422A
:104080001143081CE1E7291C114302D1002EC2D0C4
:10409000D4E702204042D8E7AF42D1D809D000206F
:1040A000AF42D2D2504641424841012340421843D8
:1040B000CBE7C445C4D80020C445F3D3C5E7C04608
:1040C000FF070000F0B55F464D4644465646804621
:1040D000F0B4061C0803000B84462C484C001F0358
:1040E0005D00C90F640D8B4691463F0B6D0DDB0FD4
:1040F000844212D0854225D0002C14D161460E4353
:1041000070424641002D35D0002E21D058425841F2
:10411000012143420B43181C0EE06146022031434B
:104120000AD1A5420ED0002D12D13A4310D15B46E0
:10413000594201231943081C3CBC90469946A246AB
:10414000AB46F0BD391C02201143F5D1002CD5D06F
:104150009B45ECD1AC42EADC05DBBC45E7D80FD08F
:104160000020BC45E8D25846414248414142012026
:104170000843E1E73A43C7D10020002EDCD1D6E75F
:10418000C845D4D80020C845EDD3D5E7FF070000C7
:10419000F0B55F4656464D464446F0B4051C061C35
:1041A000080387B099464F00030BCC0F92469B46FD
:1041B0007F0D019467D06C4B9F4236D080205B46C8
:1041C00040031843C0006B0F1843684B83469C465E
:1041D00000239846EE00674400934B4649461D0372
:1041E000C90F5B0052462D0B5B0D894600D16EE076
:1041F0005D498B4264D080205C4940038C4600219D
:104200000543ED00500F0543D20063444846FF18B4
:104210007B1C9A46009B604002900B430F2B00D9F9
:10422000ACE053489B00C3589F465B461D4300D0FB
:1042300082E00823009300239B4602330026984621
:10424000CBE7029B01934346022B59D10124002561
:104250000026019B1C40444B00212D030A0D120532
:104260002D0B1543434A1B0515401D436D00E40704
:104270006D082543301C291C07B03CBC904699466C
:10428000A246AB46F0BD2B434ED05B46002B00D17F
:1042900085E15846FFF7A6FD021C2823291C9B1A1E
:1042A000161C5846D940083EB0400B1CB54003438D
:1042B0009B462E1C0023304F0093BF1A98468CE774
:1042C000514629432ED10025002202219EE7514666
:1042D000294323D0002D00D154E1281CFFF782FD93
:1042E000031C28215046C91A1A1CC8405146083AD6
:1042F000914095400A1C05431F480021C31A85E7D9
:10430000032B00D1C2E1012B00D06DE14446019B9B
:1043100000251C40E4B2002300269DE70025002272
:10432000012173E7032171E70423009300239B46D7
:1043300001330026984650E70C230093093B98462A
:104340004BE7802500242D030026074B84E74B46CE
:10435000AB46161C0193884675E7029BAB46161CBC
:10436000019388466FE7C046FF07000001FCFFFF8E
:104370000C630000FFFF0F800DFCFFFF330C3604C1
:10438000360C9C46331C140C1204120C53439846F2
:10439000634653439946634663430193331C414646
:1043A0006343090C4B445B18994505D980204002B2
:1043B0008146019949440191190C03914146090430
:1043C000090C1B045B1804932B0C9846331C2D041A
:1043D000290C4B43604600934346654658435E4371
:1043E000009B4D431B0C9946AE194E448446B54282
:1043F00003D980235B029946CC44350C2B1C0398CF
:10440000634484460593009B36041B041B0CF3187D
:104410009C446046039058460504060C280C8446CC
:104420005043351C81466046654344434846000C72
:104430008346724314195C44A24203D9802252027B
:1044400093465D44220CAD184A461204120C240413
:104450004046A41862464A4371434643604600966C
:10446000464670438046100C84468844E0444145EB
:1044700005D9802149028C46009961440091019838
:1044800003998446614499429B415B429946059851
:10449000434684461204120C1B049B1863449C463A
:1044A000AB4683429B4140460A19CC44A242894113
:1044B000E344CC45B6415C46000C80464942764216
:1044C0005B426418334398448C428941AB459B411D
:1044D00049425B4219430D1C009B4544EE1876028D
:1044E000E50D2E43B346049B56021E43731E9E41A8
:1044F0005B46D20D324366021643DB010AD5012327
:10450000334076081E435B46DB071E435B465B0871
:104510009B465746634BFB18002B5ADD720709D0A8
:104520000F223240042A05D0321DB242B6417642F3
:10453000B344161C5A46D20106D55A465A4B1A4065
:1045400080239346DB00FB18584A934234DD012454
:10455000029B00251C400026554B7DE680205B46D3
:104560000003034208D0054206D105432D032D0B5D
:104570004C46161C4E4B6FE65D4605432D032D0B36
:104580004B4B69E65046FFF72DFC031C2033272BCD
:1045900000DCA6E65546083885400022ACE6281C1B
:1045A000FFF720FC021C2032272A00DC75E60838C1
:1045B00085400026AB467DE65A46F608520716436C
:1045C0005A4601245502029A5B052D0B5B0D1440DF
:1045D00042E6384DED1B382D0ADD0124029B0025F3
:1045E0001C400026002337E6019B5746029391E7C3
:1045F0001F2D25DC304B321C9C466744BE405B4679
:10460000BB40371CEA407E1EB74113433B431E1C90
:104610005B46EB401D1C730709D00F233340042B6E
:1046200005D0331DB342B6417642AD191E1C2B0294
:1046300020D50124029B00251C40002601230BE607
:104640005A461E4BDB1BDA40131C202D1CD01C4A83
:1046500094465A466744BA40171C3E43721E964120
:104660001E4307230025334007D00F230025334086
:10467000042BD6D16B076D022D0B0124F6081E43C7
:10468000029B1C400023E7E50027E6E780255B4608
:1046900001242D031D43019B2D0323401C1C2D0BC6
:1046A000034BD9E5FF030000FFFFFFFEFE070000FC
:1046B000FF07000002FCFFFF1E040000E2FBFFFFFB
:1046C0003E040000F0B54D4644465F465646F0B401
:1046D0000E1C111C3203520A470F1743C5001A0360
:1046E0005800DB0F9946520A4B0F83B01A43CB0098
:1046F0000193CF4B7400F60F640DB046400D984205
:1047000000D1E8E00123494659400B1C9E4200D1EC
:10471000B1E0261A002E00DC1CE1002842D1131C57
:1047200001990B4300D0E6E06B0700D18EE00F2328
:104730002B40042B00D189E02A1DAA42AD418023E1
:10474000012641466D427F191B043B400E40151C5B
:10475000002B00D183E0B64B01349C4200D116E11E
:104760003A1CB44BED081A40500764055202054349
:10477000120B640D002112030B0D1B056405120BB7
:104780001A436308AC4CF60714401C4364006408E9
:104790003443281C211C03B03CBC90469946A246D9
:1047A000AB46F0BDA24B9C42BED080231B041A43F3
:1047B000382E00DD03E11F2E00DD3FE12020831BAA
:1047C0009946131C49468B409C46019B6046F3402A
:1047D00003430198F2408840011C481E81410B436D
:1047E000EB1A9D4280411D1CBA1A4042171A3B0227
:1047F00000D4A8E07A02560A002E00D1CAE0301C8C
:10480000FFF7F0FA031C083B1F2B00DDCBE028224A
:10481000291C121AD1409E400A1C9D4032439C42E2
:1048200000DDC8E01C1B671C1F2F00DDEDE01F230F
:10483000291C1C1B131CA540A340F9406C1EA5415C
:10484000FA4019430D43171C00246DE7802301260D
:1048500042461B043B401640002B00D07BE7744BC4
:10486000ED0878070543FA089C423BD01203640523
:10487000120B640D7EE7231A9A46002B00DCA5E09C
:10488000002844D06A48844200D14DE780200004CB
:1048900002435346382B00DC1CE1019B1A43511E96
:1048A0008A41D1B200224919A94280410D1CD21976
:1048B000404217183B0246D55D4B01349C4200D163
:1048C00069E101205B4A6B083A4028401843D5074C
:1048D0000543570828E7131C01990B4300D111E742
:1048E0004B4613E72B1C134351D080231B031A4361
:1048F0001203120B3EE7013E002E00D080E0691A41
:104900008D429B41BA1A5B42D71A0D1C6FE7101CEF
:10491000019B184300D107E701235B429C46E24418
:104920005346002B00D002E1019BD2195919A9422C
:104930009B415B42D7180D1CBCE76346034300D183
:1049400028E1071C65466B0700D0F0E601264346C8
:104950001E4084E7002E00D081E0601C4005400D21
:10496000012800DC07E10199681A84466545B641D3
:10497000B81A7642861B300200D4A1E08C464D1B4B
:10498000AC458941D21B4942561A984634E7002269
:104990000025EFE6281CFFF725FA2030031C083B12
:1049A0001F2B00DC33E7021C283A95402A1C002507
:1049B0009C4200DC36E71F4FE41A1740B4E6019B27
:1049C0001A43511E8A41D3B2002209E7002B00D0BE
:1049D00001E1601C43055B0D012B00DCB0E0144BD2
:1049E000984200D11EE1019BD2195919A9429B415D
:1049F0005B42D2184908D5070D435708041C93E6BB
:104A00000B4B9C4200D0D3E68EE6211C131C1F39B1
:104A1000CB40191C202F00D18EE03F231C1BA2404D
:104A200015436A1E954100270D4300248BE7C046BD
:104A3000FF070000FFFF7FFFFFFF0F80331C101CEC
:104A4000203BD840202E79D040239B1B9A40131C3A
:104A5000019A1343591E8B4100220343C0E6002CE8
:104A600053D0C74CA04200D1B0E0802471428946A7
:104A7000240427434946382900DDCDE01F2900DD05
:104A800059E120243E1C611A8E408A46B0464946B0
:104A90002E1CCE405146B4468D406446464649469B
:104AA00026436C1EA541CF4035430199D71B8C4648
:104AB0004D1BAC4592415242BF1A041C984696E6E3
:104AC00063466546334300D096E60026002700245F
:104AD0000025C4E61F2B61DC2020C31A9B46131C53
:104AE00059468B4051469946019BCB409C464B46CC
:104AF000604603439C465B46019999406346481EC5
:104B0000814119435346DA40CDE63C1C2C435DD02D
:104B1000F1438946002955D10199D21B8C464D1B82
:104B2000AC4589414942571A041C98465FE69448AF
:104B3000844200D0ADE6F7E5002271E7002387E765
:104B40003B1C2B43002C00D0DAE0002B00D113E1FA
:104B5000131C01990B4300D1E6E54919A9429B4179
:104B6000D2195B42D7183B0200D421E1854B0D1CC2
:104B70001F40041CD8E5381C2843002C40D10028D5
:104B800000D083E0101C0199084303D0171C0D1CB2
:104B90009846C9E500260027002560E65046131C0C
:104BA0002038C340181C5346202B00D1C1E04023BD
:104BB00051465B1A9A40019911434A1E91410022C5
:104BC000014370E66E4CA04200D053E7171C019DD4
:104BD000041C9846A8E5002C28D13C1C2C4300D18D
:104BE0008AE0DB439A46002B00D082E0019BD21979
:104BF0009C4665449D42894149425718041C59E628
:104C000000285BD1101C0199084300D1A4E0171CB7
:104C10000D1C98465A4C87E53D436F1EBD41002749
:104C2000EDB242E7041C0027002518E6544CA042D0
:104C300062D0534680245B429A462404274353465D
:104C4000382B00DD8EE01F2B00DD9DE02024E31AD1
:104C50009B463B1C59468B40514699462B1CCB40EA
:104C60009C464B46644623439C465B469D406346B8
:104C70006C1EA541CF401D43019BBF189C46654457
:104C80009D4292415242BF18041C13E6101C019928
:104C9000084300D148E5681A844685428041BE1A1F
:104CA0004042301A060200D447E68C464D1BAC4504
:104CB0008941D21B4942571A984635E5101C019983
:104CC000084334D080247807ED08FF0824032843E4
:104CD000274208D0D608264205D1C90852070A4300
:104CE000101C371C9846FF00420F1743C500244C88
:104CF0001AE5234CA042A2D1171C019D041C13E508
:104D0000002B35D0131C01990B4310D08024780759
:104D1000ED08FF08240328432742E4D0D3082342A8
:104D2000E1D1C90852070A43101C1F1CDBE7144CD1
:104D3000FAE400223FE74C463E1C203CE640494650
:104D4000341C202932D04026761AB7403D436F1ECE
:104D5000BD4100272543A8E680270026FF03084C15
:104D600000257CE53D436F1EBD410027EDB283E782
:104D7000171C019D024CD7E4171C019DD4E4C046CA
:104D8000FF070000FFFF7FFF54463B1C203CE34031
:104D90001C1C5346202B0DD0402351465B1A9F40CC
:104DA0003D436F1EBD410027254365E70027CDE742
:104DB0000D1CC8E50027F3E70B0330B5134C1A0BA5
:104DC0004B00051C5B0DC90F0020A34210DD1048ED
:104DD00083420EDC80200F4C40030243E41A1F2C58
:104DE0000ADD0D48C31ADA40131C484243405818E4
:104DF00030BD0A4BC818FBE7281CE040084CA4460D
:104E000063449A40131C0343EFE7C046FE030000CF
:104E10001D0400003304000013040000FFFFFF7FA7
:104E2000EDFBFFFF38B5041E16D0C50F00D044427D
:104E3000201CFEF7D7FF174B1B1A0A2821DC021C87
:104E4000211C153291400A1C0B21081AC4405B0535
:104E50002403240B5B0D03E0002500230024002223
:104E60000021101C24030A0D1205240B14430A4AC6
:104E70001B0514401C436400ED0764082C43211CEF
:104E800038BD0B3884405B052403240B5B0D0022E6
:104E9000E6E7C0461E040000FFFF0F8010B5041EA9
:104EA00010D0FEF79FFF144A121A0A281ADC0B23AF
:104EB000211C1B1AD94015300B03520584401B0BD3
:104EC000520D01E00022002300211B03201C1C0BBB
:104ED0000B0D1B052343094C1205234013435B00B4
:104EE000590810BD031C0B3B9C40520523031B0BB0
:104EF000520D0024E8E7C0461E040000FFFF0F80AB
:104F0000F0B544465F4656464D46F0B41C1C85B08D
:104F1000002900DAA9E00F1C0021061C8846101C9D
:104F2000191C002C00DA97E0341C3D1C824689468F
:104F3000B94273D870D04946504600F085F983468F
:104F4000391C301C00F080F95B46181A031C83469C
:104F5000203B9C4600D59CE0002300225146009255
:104F6000019363469940019151468140019B009114
:104F7000BB4200D983E000D17EE0009A019B341C43
:104F80003D1CA41A9D416346002B00DA9AE00026DE
:104F900000270296039701369E400396012686401D
:104FA0000296002800D171E00099019AD307994632
:104FB0004B464E081E435708002301220CE0AF4227
:104FC00001D1A6420AD8A41BBD4124196D41013864
:104FD000A4185D41002806D0AF42F0D90138241949
:104FE0006D410028F8D12022029E039F5B46524269
:104FF00036196F4199185AD4281CC8402C1C5B469E
:10500000DC40002968DB041C8C40231C5946884086
:10501000021CB61A9F4103E0B0428CD9002600273B
:1050200041464B1E9941002300910193009A019B38
:10503000002554429D41331C6340181C3B1C6B40AF
:10504000191C009B019CC018614105B03CBC9046F6
:105050009946A246AB46F0BD4346DB430C1C98463E
:10506000131C00215842A1415EE7002746428F41B0
:1050700001214942884652E7B14200D87DE7002627
:10508000002702960397002800D08DE7029E039F19
:10509000C6E720215346091ACB400022191C0023E1
:1050A000009201934B4683400B4301935CE75A46C1
:1050B00020239B1A2A1C9A40201C131C5A46D040BD
:1050C00018439BE720260027331A002602960397F1
:1050D0000127DF40039761E75B4620215D46C91A3F
:1050E000031CAC40CB40191C231C0B438EE7C0466D
:1050F000F0B545464E465746E0B4041C82B00D1C40
:10510000914698468B4262D85FD04146484600F0AF
:105110009BF8291C061C201C00F096F82023311A4D
:105120005B428A46C81865D44B4683401F1C4B46D9
:105130008B401E1CAF4258D855D0A41BBD4100283F
:1051400000DA77E0002200230092019301328240CE
:10515000019201238B40009300293CD0FB07984625
:10516000404672087B080243012600270CE0AB4250
:1051700001D1A2420AD8A41A9D4124196D410139D6
:10518000A4197D41002906D0AB42F0D90139241978
:105190006D410029F8D120220098019953465242CE
:1051A000001969419E183AD42F1CF7405346DD4040
:1051B000002E29DB3C1CB440231C5446A7403A1C5B
:1051C000801A99410090019105E082429DD9002307
:1051D0000024009301940098019902B01CBC9046F1
:1051E0009946A246F0BDA342A7D90022002300920F
:1051F0000193B1E720224B46521AD3401A1C434672
:105200008B401F1C174392E7534620245646E41A4E
:105210003B1CB540E3401C1C2B1C2343CDE75246EE
:1052200020239B1A2A1C9A40271C131C5246D74045
:105230001F43BBE720230022581A0023009201934A
:105240000132C240019284E710B5002903D1FEF774
:10525000C9FD203002E0081CFEF7C4FD10BDC046A9
:10526000084B10B5041C002B02D0002100E000BF49
:10527000054B1868836A002B00D09847201C00F06B
:105280003DF8C04600000000506300000E4B70B5B2
:1052900000251E1C0D4CE41AA410A54204D0AB003E
:1052A000F35898470135F8E700F02AF8084B002535
:1052B0001E1C084CE41AA410A54204D0AB00F358FD
:1052C00098470135F8E770BD740000207400002095
:1052D0007400002078000020002310B5934203D012
:1052E000CC5CC4540133F9E710BD031C821893420F
:1052F00002D019700133FAE770470000FEE7C0469C
:10530000F8B5C046F8BC08BC9E467047F8B5C04624
:10531000F8BC08BC9E46704701B40248844601BCF4
:10532000604700BF6D00002004030000F002000091
:10533000E402000000030000040300000403000076
:10534000F4020000FA020000B202000004030000B0
:10535000EC020000CE030000520300007C030000BA
:105360009A030000B8030000CE0300004E030000C3
:105370002406000030060000380600004006000049
:10538000EE050000100600008407000084070000FE
:105390006807000058070000380700006E0700008B
:1053A00084070000840700008407000084070000D1
:1053B00084070000740700005E0700007A07000001
:1053C000E606000012070000020700007A0700004E
:1053D0007A070000280700007A0700007A0700001B
:1053E0007A0700007A0700007A0700002207000011
:1053F0002F686F6D652F6272656368742F50726FCE
:105400006772616D732F53696D706C69636974792C
:1054100053747564696F5F76342F646576656C6F5D
:105420007065722F73646B732F6765636B6F5F7347
:10543000646B5F73756974652F76322E342F706CD0
:105440006174666F726D2F656D6C69622F73726324
:105450002F656D5F636D752E630000002F686F6DA3
:10546000652F6272656368742F50726F6772616D29
:10547000732F53696D706C696369747953747564C3
:10548000696F5F76342F646576656C6F7065722F17
:1054900073646B732F6765636B6F5F73646B5F73AC
:1054A000756974652F76322E342F2F706C61746697
:1054B0006F726D2F656D6C69622F696E632F656DFC
:1054C0005F636D752E6800002F686F6D652F6272C7
:1054D000656368742F50726F6772616D732F5369C3
:1054E0006D706C696369747953747564696F5F7604
:1054F000342F646576656C6F7065722F73646B739F
:105500002F6765636B6F5F73646B5F737569746539
:105510002F76322E342F706C6174666F726D2F652A
:105520006D6C69622F7372632F656D5F6770696F51
:105530002E6300002F686F6D652F6272656368745B
:105540002F50726F6772616D732F53696D706C6944
:105550006369747953747564696F5F76342F646519
:1055600076656C6F7065722F73646B732F676563FC
:105570006B6F5F73646B5F73756974652F76322E22
:10558000342F2F706C6174666F726D2F656D6C694E
:10559000622F696E632F656D5F6770696F2E68009B
:1055A000050000000000000000C20100000500002E
:1055B000001000000000000051465068654D314564
:1055C0006C6C37756B4F304D6E6C433472675A4953
:1055D000000000006D616B65723A344A79345531D0
:1055E000366C6A7A6C764F304E77377A616A314C16
:1055F0006F7733594868573379724A4A4975446A14
:105600005830000053656E64696E672044697361A9
:10561000626C65204563686F20636F6D6D616E64B9
:105620002E2E2E00415445300D00000043524954A7
:105630003A2054696D656F757420726561636865A1
:1056400064207768696C652077616974696E67208A
:105650006F6E200020636F6D6D616E64000000004E
:105660004552524F52000000506F776572696E6765
:10567000206F6E2042473936000000004150502014
:105680005244590053656E64696E672041637469C2
:10569000766174652050445020636F6D6D616E6457
:1056A0002E2E2E0041542B51494143543D310D00C3
:1056B0004F4B000053656E64696E672043726561ED
:1056C00074652055445020636F6D6D616E642E2E9D
:1056D0002E00000041542B51494F50454E3D312C76
:1056E000302C22554450222C2234302E36382E3184
:1056F00037322E313837222C383839310D0000003E
:105700002B51494F50454E3A20302C3000000000BC
:1057100053656E64696E6720446561637469766180
:1057200074652050445020636F6D6D616E642E2E41
:105730002E00000041542B514944454143543D3112
:105740000D00000053656E64696E6720506F7765C9
:105750007220646F776E20636F6D6D616E642E2EA4
:105760002E00000041542B51504F57440D000000B3
:10577000504F574552454420444F574E00000000BB
:10578000506F776572696E6720646F776E2042474D
:105790003936207573696E6720686172647761724B
:1057A000652E2E2E00000000494E464F3A205365CC
:1057B0006E64696E672074686520666F6C6C6F77C5
:1057C000696E672076616C75657320746F207468EC
:1057D0006520636C6F75643A000000002020202073
:1057E00020207431203D20002C207432203D2000E8
:1057F0002C2070203D2000002C206E31203D200008
:105800002C206E32203D20002C2072203D200000F4
:105810002C2063203D20000041542B514953454E1C
:105820004445583D302C220030610000613736324B
:10583000373433313139000036323734333231398D
:10584000000000003631373031390000363236651D
:1058500033313139000000003632366533323139A8
:10586000000000003631373231390000363136332E
:1058700031390000220A0D0053454E44204F4B00A1
:10588000494E464F3A2053656E64696E67207374C3
:10589000617475732000000020746F2074686520A7
:1058A000636C6F75642E00006131363137333139E6
:1058B00000000000494E464F3A2053656E64696E01
:1058C000672070756C7365287329205B00000000E9
:1058D0005D20746F2074686520636C6F75642E00A2
:1058E000613136323730333131390000613136328F
:1058F00037303332313900004E6F20445331384253
:1059000032302070726573656E63652070756C73DC
:105910006520646574656374656420696E207469CC
:105920006D6521004453313842323020494E49548C
:105930002028000029000000445331384232302032
:10594000636F6E76657273696F6E202800000000C9
:1059500057616974696E672074696D6520666F723E
:10596000204453313842323020636F6E7665727353
:10597000696F6E20726561636865642100000000D4
:105980000100010052544320696E697469616C69B9
:105990007A6564207769746820554C4652434F00FD
:1059A00044656C617920746F6F206C6F6E672C207A
:1059B00063616E27742066697420696E207468655F
:1059C000206669656C642100536C656570696E675B
:1059D00020696E20454D3320666F72200000000064
:1059E00020730A0D0A0D00000101000000000000F4
:1059F000486B01000000000049324320696E697461
:105A000069616C697A65642E000000004750494F57
:105A10002077616B652D757020696E697469616CA2
:105A2000697A656400000000C01C0000701C000062
:105A3000501C0000441C0000261C00002A1D000011
:105A40005431200043205432200000004300000065
:105A50004E312000204E322000000000704820000F
:105A6000205265646F782000496E697469616C69C1
:105A70007A696E67202E2E2E0000000053656E643A
:105A8000696E6720737461727475702073746174C9
:105A90007573202E2E2E000053656E64696E67208C
:105AA0007374617475732028302900004D6561732B
:105AB0007572696E67202E2E2E00000074313A2018
:105AC0000000000074323A2000000000633A200019
:105AD000206D6D0053656E64696E67206D6561733E
